:020000040800F2
:1000000000000220A52800081109000813090008B3
:100010001509000817090008190900080000000068
:100020000000000000000000000000001B090008A4
:100030001D090008000000001F0900082109000830
:10004000F5280008F5280008F5280008F52800081C
:10005000F528000829090008F5280008F5280008F7
:10006000F5280008F5280008F5280008F5280008FC
:10007000F5280008F5280008F5280008F5280008EC
:10008000F5280008F5280008F5280008F5280008DC
:10009000F5280008F5280008F5280008F5280008CC
:1000A000F5280008F5280008F52800082D090008A3
:1000B000F5280008F5280008F5280008F5280008AC
:1000C000F5280008F5280008F5280008F52800089C
:1000D000F5280008F5280008F5280008F52800088C
:1000E000F5280008F5280008F5280008F52800087C
:1000F000F5280008F5280008F5280008F52800086C
:10010000F5280008F5280008F5280008F52800085B
:10011000F5280008F5280008F5280008F52800084B
:10012000F5280008F5280008F5280008F52800083B
:10013000F5280008F5280008F5280008F52800082B
:10014000F5280008F5280008F5280008F52800081B
:10015000F5280008F5280008F5280008F52800080B
:10016000F5280008F5280008F5280008F5280008FB
:10017000F5280008F5280008F52800080000000010
:08018000F5280008F52800082D
:1001900010B5054C237833B9044B13B10448AFF3C1
:1001A00000800123237010BD7000002000000000BB
:1001B000C831000808B5034B1BB103490348AFF32E
:1001C000008008BD0000000074000020C831000855
:1001D00001F0FF01102A2BDB10F0070F08D010F8F8
:1001E000013B013A8B422DD010F0070F42B3F6D1FC
:1001F000F0B441EA012141EA014122F007047FF015
:1002000000070023F0E80256083C85EA010586EA6B
:10021000010685FA47F5A3FA87F586FA47F6A5FAA7
:1002200087F68EB9EED1F0BC01F0FF0102F00702B3
:1002300032B110F8013B013A83EA010313B1F8D15E
:100240000020704701387047002D06BF354603383F
:10025000073815F0010F07D1013015F4807F02BF78
:10026000013015F4C03F0130F0BC0138704700BFC9
:1002700053B94AB9002908BF00281CBF4FF0FF310D
:100280004FF0FF3000F06EB9ADF1080C6DE904CE0F
:1002900000F006F8DDF804E0DDE9022304B0704761
:1002A0002DE9F047089D04468C46002B40F08380E2
:1002B0008A42174647D9B2FA82F242B1C2F120000F
:1002C00024FA00F09140974040EA010C94404FEA34
:1002D0001748230CBCFBF8F61FFA87FE08FB16C173
:1002E00043EA014306FB0EF1994209D9FB1806F1D6
:1002F000FF3080F01981994240F21681023E3B4462
:100300005B1AA4B2B3FBF8F008FB103344EA0344D1
:1003100000FB0EFEA64509D93C1900F1FF3380F021
:100320000581A64540F2028102383C4440EA06407D
:10033000A4EB0E0400261DB1D4400023C5E9004300
:100340003146BDE8F08702B9FFDEB2FA82F2002A38
:1003500050D1CB1B4FEA174E1FFA87F80126B3FB8B
:10036000FEFC210C0EFB1C3341EA034108FB0CF39D
:100370008B4207D979180CF1FF3002D28B4200F280
:10038000E9808446C91AA3B2B1FBFEF00EFB10113E
:1003900043EA014408FB00F8A04507D93C1900F1E5
:1003A000FF3302D2A04500F2D9801846A4EB08041E
:1003B00040EA0C40BFE78B4209D9002D00F0B18024
:1003C0000026C5E9000130463146BDE8F087B3FAA2
:1003D00083F6002E4AD18B4202D3824200F2B880CB
:1003E000841A61EB030101208C46002DA8D0C5E9D9
:1003F000004CA5E7C2F1200320FA03F6974001FA6A
:1004000002F04FEA174ED9403043030CB1FBFEF621
:100410001FFA87F80EFB161143EA014306FB08F1A9
:10042000994204FA02F409D9FB1806F1FF3C80F066
:100430008D80994240F28A80023E3B445B1A81B231
:10044000B3FBFEF00EFB103341EA034100FB08F35F
:100450008B4207D9791800F1FF3C73D28B4271D9D6
:1004600002383944CB1A40EA064678E7C6F1200C38
:1004700003FA06F422FA0CF31C4320FA0CF701FAF3
:1004800006F34FEA144E21FA0CF11F433B0CB1FB6B
:10049000FEF91FFA84F80EFB191143EA014109FB2A
:1004A00008FA8A4502FA06F200FA06F308D961183A
:1004B00009F1FF3048D28A4546D9A9F10209214401
:1004C000A1EB0A01BFB2B1FBFEF00EFB101147EA2F
:1004D000014700FB08F8B84507D9E71900F1FF31DB
:1004E0002ED2B8452CD90238274440EA0940A7EB60
:1004F0000807A0FB02894F45C64649461AD317D0C4
:100500005DB1B3EB0E0267EB010707FA0CFCF2409A
:100510004CEA0202F740C5E9002700263146BDE853
:10052000F0872E4628460BE70646E9E61846FDE624
:100530004345E5D2B8EB020E69EB04010138DFE771
:100540000846D2E760468DE78146B9E7664675E71B
:1005500030464AE7ACF1020C394413E702383C4418
:1005600024E700BF704700BF86B0002200921F4BF7
:10057000196B41F080011963196B01F08001009142
:1005800000990192196B41F001011963196B01F097
:100590000101019101990292196B41F01001196357
:1005A000196B01F01001029102990392196B41F04D
:1005B00002011963196B01F002010391039904927E
:1005C000196B41F008011963196B01F008010491DE
:1005D000049905921A6B42F004021A631B6B03F034
:1005E00004030593059B06B0704700BF0038024026
:1005F00008B50948094B0360094B43600023836039
:10060000C3604FF48042026143618361C36103624E
:1006100000F07EFC08BD00BF18010020005400401F
:10062000A086010008B50948094B0360094B4360E7
:1006300000238360C3604FF48042026143618361A1
:10064000C361036200F064FC08BD00BF6C010020C0
:1006500000580040A086010070B586B000240494C4
:1006600005940094019402940394194D194B2B6046
:1006700053236B60AC6040F6C413EB602C616C617B
:100680008023AB61284601F0DDFC0494059404A9A5
:10069000284601F033FE00940123019302940826BA
:1006A000039622466946284601F0C8FD04226946A1
:1006B000284601F0C3FD32466946284601F0BEFDDA
:1006C0000C226946284601F0B9FD06B070BD00BF96
:1006D000C00100200000014030B593B00024109408
:1006E000119409940A940B940C940D940E940F9405
:1006F0002022214601A802F023F9214D214B2B6035
:1007000053236B60AC6040F6C413EB602C616C61EA
:10071000AC61284601F07CFC1094119410A9284685
:1007200001F0ECFD602309930A940B940C940D9452
:100730000E940F94224609A9284601F0D5FC042204
:1007400009A9284601F0D0FC082209A9284601F091
:10075000CBFC0C2209A9284601F0C6FC01940294A6
:100760000394049405944FF400530693089401A94C
:10077000284601F007FE284600F0CCF913B030BD42
:10078000980000200004014008B50848084B0360A9
:100790004FF4E133436000238360C36003610C22A4
:1007A00042618361C36101F00DFF08BD00020020BA
:1007B0000044004008B50848084B03604FF4E1339B
:1007C000436000238360C36003610C224261836144
:1007D000C36101F0F7FE08BDD800002000480040CA
:1007E00030B595B03022002108A802F0A9F8002405
:1007F0000394049405940694079401941B4B1A6C7B
:1008000042F080521A641B6C03F080530193019BE9
:100810000294174B1A6842F480421A601B6803F472
:1008200080430293029B012308934FF48033099382
:1008300002250E954FF480030F9304231093A822F2
:1008400011921295139308A800F0F2FC0F23039362
:10085000049505944FF4A05306934FF480530793E7
:10086000052103A800F040FF15B030BD003802405C
:100870000070004010B58EB001F082F9FFF7B0FFB4
:10088000FFF772FEFFF7B4FEFFF7CCFEFFF7E4FEC2
:10089000FFF722FFFFF778FFFFF78CFF01F0FCFE68
:1008A00001F089FF01F082FF01242246174901A8C7
:1008B00002F04EF80134012301AA0021084601F09C
:1008C00085FF012301AA1946002001F07FFF0123C3
:1008D00001AA0221002001F079FF012301AA0321CE
:1008E000002001F073FF012301AA0421002001F080
:1008F0006DFF012301AA0521002001F067FF0123FC
:1009000001AA0621002001F061FFCEE7E0310008D6
:100910007047FEE7FEE7FEE7FEE770477047704767
:1009200008B501F047F908BD7047000008B5024856
:1009300001F04CFA08BD00BFC001002000B583B033
:10094000002100910E4B5A6C42F480425A645A6C5A
:1009500002F480420092009A01911A6C42F0805297
:100960001A641B6C03F080530193019B0A46052017
:1009700001F088F8052001F0B9F803B05DF804FB38
:100980000038024030B58BB00023059306930793DF
:10099000089309930368294A934204D0284A934252
:1009A00026D00BB030BD00250195264C236B43F0BB
:1009B00002032363236B03F002030193019BC02313
:1009C000059312230693012307930323089304231B
:1009D000099305A91C4800F05DFF0295236C43F4C0
:1009E00000132364236C03F400130293029BD8E7E3
:1009F00000250395134C236B43F002032363236B01
:100A000003F002030393039B4FF440630593122307
:100A1000069301230793032308930423099305A94D
:100A2000094800F037FF0495236C43F480032364E6
:100A3000236C03F480030493049BB2E7005400404A
:100A4000005800400038024000040240F0B589B070
:100A500000230393049305930693079302681F4BA7
:100A60009A4201D009B0F0BD0024019403F59C33F3
:100A70005A6C42F001025A645A6C02F0010201926F
:100A8000019A02941A6B42F010021A631B6B03F076
:100A900010030293029B4FF4007303930226049603
:100AA00005960694012507950D4F03A9384600F0D9
:100AB000F1FE4FF4D04303930496059506940795F1
:100AC00003A9384600F0E6FE224621461B2000F02E
:100AD000D9FF1B2001F00AF8C4E700BF0000014065
:100AE000001002400268094B9A4200D0704782B061
:100AF00000230193064B5A6C42F002025A645B6C6D
:100B000003F002030193019B02B07047000401400F
:100B10000038024000B587B000230193029303938D
:100B200004930593026803F1804303F582339A42EC
:100B300002D007B05DF804FB002300930B4A116B51
:100B400041F004011163126B02F004020092009A5A
:100B50004FF47072019202220292039304930323D2
:100B6000059301A9024800F095FEE2E70038024033
:100B70000008024000B58BB000230593069307934D
:100B8000089309930368294A934205D0284A93425F
:100B900026D00BB05DF804FB00220192254B196CA6
:100BA00041F400311964196C01F40031019101998B
:100BB0000292196B41F0010119631B6B03F00103F1
:100BC0000293029B0C2305930223069307920323AF
:100BD00008930723099305A9174800F05BFED8E79F
:100BE00000220392134B196C41F480211964196C93
:100BF00001F48021039103990492196B41F00801DB
:100C000019631B6B03F008030493049B4FF44073B8
:100C1000059302230693079203230893072309935E
:100C200005A9064800F036FEB3E700BF00440040C7
:100C3000004800400038024000000240000C024022
:100C400003685A6912F4806F01D1002070476FF475
:100C500080625A6100230363202280F83D2080F8DF
:100C60003E30026C42F00402026480F83C30012005
:100C700070472DE9F04107460D4690461E4622E09A
:100C800000F0A4FF069BC01AB04200D8DEB90023D2
:100C90003B63202287F83D2087F83E303A6C42F0D3
:100CA00020023A6487F83C3001201AE03B689C69D6
:100CB00025EA0404A4B2B4FA84F46409A0450FD16F
:100CC000B6F1FF3FDCD1C5F30743012BEED13B6802
:100CD0005C6925EA0404A4B2B4FA84F46409EDE77B
:100CE0000020BDE8F0812DE9F04105460E4617468B
:100CF00098463DE01A6842F400721A602B686FF45F
:100D000080625A6100232B63202285F83D2085F8FC
:100D10003E302A6C42F004022A6485F83C300120FF
:100D200034E000F053FFA0EB0800B84200D8FFB950
:100D300000232B63202285F83D2085F83E302A6C65
:100D400042F020022A6485F83C3001201EE02B6826
:100D50009C6926EA0404A4B2003C18BF0124A4B193
:100D60002B685A6912F4806FC4D1B7F1FF3FD8D114
:100D7000C6F30743012BEAD12B685C6926EA040419
:100D8000A4B2003C18BF0124E9E70020BDE8F081CF
:100D900070B504460D46164623685B6913F0800F54
:100DA0001CD12046FFF74CFFD0B9B5F1FF3FF3D07F
:100DB00000F00CFF801BA84201D8002DECD10023CD
:100DC0002363202284F83D2084F83E30226C42F0D8
:100DD0002002226484F83C30012000E0002070BD35
:100DE0000120FCE72DE9F04385B004460D4691460D
:100DF0001F46DDF830800D9E0368196841F480714C
:100E000019600096434600224FF00111FFF731FFB1
:100E100060B9236805F0FE051D6133464246264948
:100E20002046FFF760FF68B1012008E023681B68D7
:100E300013F4807F02D04FF400732364032005B0C5
:100E4000BDE8F0830023039323685A6903929B69EA
:100E50000393039B324641462046FFF799FF30B982
:100E6000012F0FD123685FFA89F61E61E7E7236C33
:100E7000042B01D00120E2E72268136843F40073D9
:100E80001360F7E723684FEA19221A613246414698
:100E90002046FFF77DFF20B923685FFA89F61E61BF
:100EA000CDE7236C042B01D00120C8E7226813682A
:100EB00043F400731360F7E70200010070B50446C5
:100EC0000D46164623685B6913F0040F1CD12046BB
:100ED000FFF7B6FED0B9B5F1FF3FF3D000F076FED4
:100EE000801BA84201D8002DECD1002323632022CF
:100EF00084F83D2084F83E30226C42F020022264C7
:100F000084F83C30012000E0002070BD0120FCE7A7
:100F1000002800F0CC80F8B5044690F83D30002B56
:100F200077D0242384F83D302268136823F001032E
:100F300013602268136843F4004313602268136847
:100F400023F40043136000F085FC62685A4B9A4218
:100F500064D85A4B98428CBF00230123002B40F0E9
:100F6000A880574DA5FB0035AF0C2668716821F0AD
:100F70003F0141EA9541716021680B6A23F03F030C
:100F800065684D4A95424FD87A1C13430B62256819
:100F9000E96921F44F4121F0FF016368464A934219
:100FA0004CD801385B00B0FBF3F0013040F6FC7325
:100FB000184278D0C0F30B030B43EB6121680B6838
:100FC00023F0C003E269206A024313430B602168E7
:100FD0008B6823F4034323F0FF032269E068024394
:100FE00013438B602168CB6823F0FF036269A0691B
:100FF00002431343CB602268136843F0010313607C
:1010000000202064202384F83D30206384F83E00D3
:10101000F8BD80F83C30FFF7B5FC82E7294B9842D9
:101020008CBF0023012399E74FF4967202FB07F26D
:10103000254DA5FB025292090132A6E7A268BAB972
:10104000461E03EB4307B6FBF7F60136C6F30B0665
:10105000B6FA86F6760946BBC2B9421E03EB4303D5
:10106000B2FBF3F20132C2F30B0242F40043A3E7F6
:10107000461E03EB830707EB8707B6FBF7F601363F
:10108000C6F30B06B6FA86F67609E4E7421E03EBD2
:10109000830303EB8303B2FBF3F20132C2F30B02CF
:1010A00042F4404388E7042386E7012384E70120D4
:1010B00070470120ACE700BFA08601007F841E00BE
:1010C00083DE1B43FF083D00D34D62102DE9F04342
:1010D00083B004460F46904699460C9E00F076FD7C
:1010E000054694F83D00C0B2202803D0022003B08A
:1010F000BDE8F0830095192301224B492046FFF7F4
:10110000B8FD002840F0898094F83C30012B00F0B5
:101110008680012384F83C3023681A6812F0010F9E
:1011200003D11A6842F001021A602268136823F49E
:1011300000631360212384F83D30402384F83E305F
:10114000002323640A9B6362BDF82C306385638DA2
:101150002385364BE362019500964B46424639465D
:101160002046FFF73FFE00285BD1238D002B35D0B2
:101170002A4631462046FFF70BFE20BB626A2368F1
:1011800012781A61616A4B1C6362228D013A92B235
:101190002285638D9BB2013B9BB2638523685869AE
:1011A00010F0040FE1D0002ADFD04A781A61636A98
:1011B00001336362238D013B2385638D9BB2013B29
:1011C0009BB26385D1E7236C042B01D001208EE70D
:1011D0002268136843F400731360F7E72A46314628
:1011E0002046FFF76BFE50B1236C042B01D0012089
:1011F0007DE72268136843F400731360F7E7226801
:10120000136843F400731360202384F83D300023F7
:1012100084F83E3084F83C3069E7022067E702201A
:1012200065E7012063E700BF020010000000FFFF38
:10123000002800F0D98170B582B00446036813F02D
:10124000010F3BD0A64B9B6803F00C03042B2CD062
:10125000A34B9B6803F00C03082B21D06368B3F504
:10126000803F4FD0B3F5A02F52D09D4B1A6822F487
:1012700080321A601A6822F480221A606368002B98
:1012800050D000F0A3FC0546954B1B6813F4003FBB
:1012900014D100F09BFC401B6428F5D90320AAE17F
:1012A0008F4B5B6813F4800FD8D08D4B1B6813F401
:1012B000003F03D06368002B00F09881236813F08F
:1012C000020F54D0864B9B6813F00C0F3ED0844B1A
:1012D0009B6803F00C03082B33D0E368002B67D026
:1012E000804B01221A6000F071FC05467C4B1B68A4
:1012F00013F0020F53D100F069FC401B0228F5D90E
:10130000032078E1764A136843F480331360B5E72D
:10131000734B1A6842F480221A601A6842F48032D1
:101320001A60ABE700F052FC05466D4B1B6813F4E6
:10133000003FC3D000F04AFC401B6428F5D90320CD
:1013400059E1674B5B6813F4800FC6D1644B1B688F
:1013500013F0020F03D0E368012B40F04981604A8B
:10136000136823F0F803216943EAC103136023687B
:1013700013F0080F40D0636963B35B4B01221A601E
:1013800000F024FC0546564B5B6F13F0020F33D17F
:1013900000F01CFC401B0228F5D903202BE1504A29
:1013A000136823F0F803216943EAC1031360DEE701
:1013B0004C4B00221A6000F009FC0546484B1B68A4
:1013C00013F0020FD3D000F001FC401B0228F5D926
:1013D000032010E1444B00221A6000F0F7FB0546A1
:1013E0003F4B5B6F13F0020F06D000F0EFFB401B8A
:1013F0000228F5D90320FEE0236813F0040F78D00B
:10140000374B1B6C13F0805F0DD100230193344BDD
:101410001A6C42F080521A641B6C03F080530193E3
:10142000019B012500E00025304B1B6813F4807FF1
:1014300021D0A368012B32D0052B36D0284B1A6F50
:1014400022F001021A671A6F22F004021A67A368D9
:10145000002B34D000F0BAFB0646214B1B6F13F073
:10146000020F45D100F0B2FB801B41F28833984255
:10147000F3D90320BFE01D4A136843F4807313605F
:1014800000F0A4FB0646194B1B6813F4807FD0D1F3
:1014900000F09CFB801B0228F5D90320ABE0104A2A
:1014A000136F43F001031367D1E70D4B1A6F42F03E
:1014B00004021A671A6F42F001021A67C7E700F0C8
:1014C00085FB0646064B1B6F13F0020F10D000F091
:1014D0007DFB801B41F288339842F3D903208AE0D8
:1014E0000038024000004742800E47420070004032
:1014F000E5B9A369002B7DD0464A926802F00C0240
:10150000082A51D0022B17D0434B00221A6000F05A
:101510005DFB04463F4B1B6813F0007F42D000F098
:1015200055FB001B0228F5D9032064E0394A136CEF
:1015300023F080531364DCE7374B00221A6000F07D
:1015400045FB0546334B1B6813F0007F06D000F0C7
:101550003DFB401B0228F5D903204CE0E369226AD9
:101560001343626A43EA8213A26A5208013A43EAC9
:101570000243E26A43EA0263264A5360264B012291
:101580001A6000F023FB0446224B1B6813F0007F17
:1015900006D100F01BFB001B0228F5D903202AE02E
:1015A000002028E0002026E0012B26D0194B5B68A4
:1015B00003F48001E269914221D103F03F02216AE4
:1015C0008A421ED1616A47F6C0721A408A421AD115
:1015D00003F44032A16A8A4217D103F07063E26AD1
:1015E000934214D1002006E001207047012002E060
:1015F000012000E0002002B070BD0120FBE70120C7
:10160000F9E70120F7E70120F5E70120F3E70120E2
:10161000F1E700BF0038024060004742F8B52F4BA9
:101620009B6803F00C03042B53D0082B53D12B4B96
:101630005A6802F03F025B6813F4800F28D0274BF2
:101640005B68C3F3881358010021C01A61F10001DF
:101650008E0146EA906687013C1A66EB0105E900B7
:1016600041EA5471E000C01841F100014B0243EA25
:10167000D0534402204619460023FEF7F9FD174BCC
:101680005B68C3F3014301335B00B0FBF3F023E07D
:10169000124B5B68C3F388135C010025E41A65F103
:1016A0000005AE0146EA9466A701381B66EB05010A
:1016B000CC0044EA5074C500E81844F100018B02E4
:1016C00043EA90538402204619460023FEF7D0FDDA
:1016D000D5E7034800E00348F8BD00BF00380240EA
:1016E00000127A000024F400002800F09B8070B5FE
:1016F0000D4604464F4B1B6803F00F038B4208D284
:10170000CBB24C4A1370136803F00F038B4240F0C6
:101710008B80236813F0020F17D013F0040F04D04E
:10172000454A936843F4E0539360236813F0080F2D
:1017300004D0414A936843F4604393603E4A9368FF
:1017400023F0F003A1680B439360236813F0010FAB
:1017500032D06368012B21D09A1E012A25D9364A3E
:10176000126812F0020F61D033498A6822F0030236
:1017700013438B6000F02AFA06462F4B9B6803F058
:101780000C036268B3EB820F16D000F01FFA801BC7
:1017900041F288339842F0D9032042E0264A126889
:1017A00012F4003FE0D101203BE0234A126812F01E
:1017B000007FD9D1012034E01E4B1B6803F00F03DA
:1017C000AB4207D9EAB21B4B1A701B6803F00F0338
:1017D000AB422DD1236813F0040F06D0164A93684C
:1017E00023F4E053E1680B439360236813F0080F80
:1017F00007D0114A936823F46043216943EAC10387
:101800009360FFF70BFF0C4B9B68C3F303130B4A6A
:10181000D35CD8400A4B18600A4B186800F08AF96C
:10182000002070BD012070470120FAE70120F8E791
:101830000120F6E7003C024000380240EC3100088D
:101840000800002004000020014B1868704700BF0A
:101850000800002008B5FFF7F7FF044B9B68C3F3AF
:101860008223034AD35CD84008BD00BF0038024041
:10187000FC31000808B5FFF7E7FF044B9B68C3F392
:101880004233034AD35CD84008BD00BF0038024051
:10189000FC31000800230F2B00F2D980F0B583B093
:1018A00039E0072200E00022B2403A430234684E99
:1018B00046F82420674A1468EA4324EA05064F687C
:1018C00017F4803F01D045EA0406624C2660646844
:1018D00002EA04064F6817F4003F01D045EA040607
:1018E0005C4C6660A46802EA04064F6817F4801F27
:1018F00001D045EA0406574CA660E46822404E68D1
:1019000016F4001F01D045EA0402524CE260013394
:101910000F2B00F29A8001229A400C6804EA02051B
:1019200032EA0404F3D14C68661E012E03D9112C4F
:1019300001D0122C12D186685F000324BC4026EA35
:101940000406CC68BC4034438460466826EA02063C
:101950004C68C4F300129A4032434260C7685E008C
:101960000324B440E24327EA04078C68B4403C43B4
:10197000C4604C68022C01D0122C13D1DF08083748
:1019800050F827E003F007044FEA840C0F2404FA10
:101990000CF42EEA040E0C6904FA0CF444EA0E046A
:1019A00040F82740046814404A6802F00302B2403D
:1019B000224302604A6812F0805FA8D000220192A0
:1019C000254A546C44F480445464526C02F48042BE
:1019D0000192019A9C08A61C1D4A52F8267003F039
:1019E000030296000F22B24027EA02071B4A9042E8
:1019F0003FF459AF02F5806290421AD002F580623E
:101A0000904218D002F58062904216D002F58062B2
:101A1000904214D002F58062904212D002F58062AA
:101A2000904210D002F5806290423FF43AAF082213
:101A30003AE7012238E7022236E7032234E704229C
:101A400032E7052230E706222EE703B0F0BD7047EB
:101A500000380140003C01400038024000000240D4
:101A6000074AD36823F4E0631B041B0C000200F454
:101A7000E060034343F0BF6343F40033D360704737
:101A800000ED00E030B4174BDB68C3F30223C3F171
:101A90000704042C28BF04241D1D062D18D9033B60
:101AA0004FF0FF3505FA04F421EA0401994005FAE4
:101AB00003F322EA0303194300280BDB0901C9B22F
:101AC00000F1604000F5614080F8001330BC7047C1
:101AD0000023E5E700F00F000901C9B2024B1954D9
:101AE000F4E700BF00ED00E014ED00E0002807DBA4
:101AF00000F01F02400901239340024A42F82030BF
:101B0000704700BF00E100E00138B0F1807F0AD2E9
:101B1000064B5860064AF02182F823100020986096
:101B200007221A6070470120704700BF10E000E0F4
:101B300000ED00E010B504460E4B18784FF47A73B0
:101B4000B3FBF0F30C4A1068B0FBF3F0FFF7DCFFD7
:101B500068B90F2C01D901200AE0002221464FF07C
:101B6000FF30FFF78FFF054B1C60002000E00120D5
:101B700010BD00BF0000002008000020040000206D
:101B800008B50B4B1A6842F400721A601A6842F4E6
:101B900080621A601A6842F480721A600320FFF7AC
:101BA0005FFF0020FFF7C6FFFEF7C8FE002008BD5C
:101BB000003C0240034A1168034B1B780B4413603E
:101BC000704700BF4002002000000020014B186851
:101BD000704700BF4002002038B50446FFF7F6FF0B
:101BE0000546B4F1FF3F02D0044B1B781C44FFF7BD
:101BF000EDFF401BA042FAD338BD00BF000000201B
:101C000030B4036A23F001030362056A4268846901
:101C100024F073040B681C4325F002058B682B43EA
:101C2000104DA84203D005F58065A84205D123F0E8
:101C30000803CD682B4323F004030A4DA84203D0C8
:101C400005F58065A84205D122F440724D6915431F
:101C50008A692A43426084614A684263036230BCF5
:101C6000704700BF0000014030B4036A23F4807362
:101C70000362036A4268C46924F073040D682C434C
:101C800023F400738D6843EA0523124DA84203D064
:101C900005F58065A84206D123F40063CD6843EAC8
:101CA000052323F480630B4DA84203D005F580651E
:101CB000A84207D122F440524D6942EA05128D69CB
:101CC00042EA05124260C4614A68C263036230BCE2
:101CD000704700BF0000014030B4036A23F4805312
:101CE0000362036A4468C26922F4E6420D6842EA6C
:101CF000052223F400538D6843EA0533094DA842B9
:101D000003D005F58065A84204D124F480444D69D0
:101D100044EA85144460C2614A680264036230BCCC
:101D2000704700BF0000014030B4056A25F010057F
:101D300005628469056A24F4407444EA022424F4A8
:101D400070441B039BB2234325F0A005090101F059
:101D5000A00129438361016230BC704730B4056A39
:101D600025F480750562C469056A24F003041443F0
:101D700024F0F0041B01DBB2234325F420650902A3
:101D800001F420612943C361016230BC704730B463
:101D9000056A25F480550562C469056A24F4407417
:101DA00044EA022424F470441B039BB2234325F429
:101DB0002045090301F420412943C361016230BC7D
:101DC00070477047704770477047704710B50446BA
:101DD00003681A6912F0020F11D0DA6812F0020FCC
:101DE0000DD06FF002021A610123037703689B692B
:101DF00013F0030F70D0FFF7E6FF0023237723686B
:101E00001A6912F0040F12D0DA6812F0040F0ED023
:101E10006FF004021A610223237723689B6913F48D
:101E2000407F5FD02046FFF7CEFF00232377236853
:101E30001A6912F0080F12D0DA6812F0080F0ED0EB
:101E40006FF008021A61042323772368DB6913F01B
:101E5000030F4ED02046FFF7B6FF002323772368F9
:101E60001A6912F0100F12D0DA6812F0100F0ED0AB
:101E70006FF010021A61082323772368DB6913F4DB
:101E8000407F3DD02046FFF79EFF00232377236845
:101E90001A6912F0010F03D0DA6812F0010F36D17F
:101EA00023681A6912F0800F03D0DA6812F0800FED
:101EB00034D123681A6912F0400F03D0DA6812F0A7
:101EC000400F32D123681A6912F0200F03D0DA686C
:101ED00012F0200F30D110BDFFF774FF2046FFF73E
:101EE00073FF8AE72046FFF76DFF2046FFF76CFF80
:101EF0009BE72046FFF766FF2046FFF765FFACE74C
:101F00002046FFF75FFF2046FFF75EFFBDE76FF05B
:101F100001021A612046FFF754FFC1E76FF080020B
:101F20001A61204600F058FAC3E76FF040021A61C8
:101F30002046FFF74AFFC5E76FF020021A612046EE
:101F400000F049FAC7E700000368304A904212D017
:101F5000B0F1804F0FD0A2F57C4290420BD002F539
:101F60008062904207D002F58062904203D002F571
:101F70007842904203D123F070034A681343234A06
:101F800090422AD0B0F1804F27D0A2F57C429042F7
:101F900023D002F5806290421FD002F58062904209
:101FA0001BD002F57842904217D002F57052904251
:101FB00013D002F5806290420FD002F58062904209
:101FC0000BD0A2F59832904207D002F58062904281
:101FD00003D002F58062904203D123F44073CA68B3
:101FE000134323F080034A69134303608B68C36281
:101FF0000B688362054B984203D003F580639842D7
:1020000001D10B6903630123436170470000014064
:10201000B0B110B5044690F83D3063B1022384F8A6
:102020003D30214651F8040BFFF78EFF012384F861
:102030003D30002010BD80F83C30FEF753FDEDE749
:1020400001207047B0B110B5044690F83D3063B13F
:10205000022384F83D30214651F8040BFFF774FF4A
:10206000012384F83D30002010BD80F83C30FEF79D
:10207000EDFCEDE70120704730B4036A23F0100354
:102080000362036A4468826922F4E6420D6842EA08
:10209000052223F020038D6843EA0513114DA84261
:1020A00003D005F58065A84206D123F08003CD68F2
:1020B00043EA051323F040030A4DA84203D005F577
:1020C0008065A84207D124F440644D6944EA850440
:1020D0008D6944EA8504446082614A6882630362D0
:1020E00030BC70470000014038B590F83C30012BFF
:1020F00066D004460D46012380F83C30022380F868
:102100003D300C2A1AD8DFE802F0071919192019F6
:1021100019193419191947000068FFF771FD226871
:10212000936943F0080393612268936923F00403E1
:1021300093612268936929690B439361012384F8B1
:102140003D30002084F83C0038BD0068FFF794FF64
:102150002268936943F4006393612268936923F4CE
:102160008063936122689369296943EA012393613B
:10217000E4E70068FFF778FD2268D36943F00803BD
:10218000D3612268D36923F00403D3612268D36941
:1021900029690B43D361D1E70068FFF79DFD2268F1
:1021A000D36943F40063D3612268D36923F4806365
:1021B000D3612268D369296943EA0123D361BDE76A
:1021C0000220C1E770B4046A24F001040462846947
:1021D000066A194DA8421DD0B0F1804F1AD0A5F55E
:1021E0007C45A84216D005F58065A84212D005F5B9
:1021F0008065A8420ED005F57845A8420AD005F5BD
:102200007055A84206D0A5F59435A84202D044F0F6
:10221000010202E024F00304224322F0F0021B0139
:10222000DBB2134326F00A0201F00A011143836175
:10223000016270BC704700BF0000014038B590F8E3
:102240003C30012B58D004460D46012380F83C3029
:10225000022380F83D30DAB1042A2AD0082A3AD085
:10226000CB684A6809680068FFF791FD2268D36966
:1022700023F44063D3612268D369A96843EA012348
:10228000D361012384F83D30002084F83C0038BD40
:10229000CB684A6809680068FFF794FF2268936971
:1022A00023F00C03936122689369A9680B4393613F
:1022B000E7E7CB684A6809680068FFF735FD2268E0
:1022C000936923F44063936122689369A96843EAA0
:1022D00001239361D5E7CB684A6809680068FFF776
:1022E0003DFD2268D36923F00C03D3612268D369D2
:1022F000A9680B43D361C4E70220C8E790F83C30DB
:10230000012B3BD030B4012380F83C30022380F80D
:102310003D3003685C689D6824F070040A682243BD
:102320005A600368164A93421AD0B3F1804F17D00F
:10233000A2F57C42934213D002F5806293420FD003
:1023400002F5806293420BD002F57842934207D0A7
:1023500002F57052934203D0A2F59432934204D115
:1023600025F080054A6815439D60012380F83D30C3
:10237000002380F83C30184630BC7047022070477C
:102380000000014090F83C30012B22D0012380F85E
:102390003C30CB6823F440738A68134323F4806392
:1023A0004A68134323F400630A68134323F48053F9
:1023B0000A69134323F400534A69134323F4804307
:1023C000CA69134302685364002380F83C301846FE
:1023D00070470220704770477047000070B5044690
:1023E0000268136923F44053C1680B431361836887
:1023F0000269134342691343C2691A430168CB68F7
:1024000023F4164323F00C031343CB600268536993
:1024100023F4407381690B435361C369B3F5004FE3
:1024200036D00368654A934200F09A8002F58062D4
:10243000934200F09580FFF70DFA0026051846EB51
:1024400006012D1846EB0101CB0043EA5573EA0063
:102450001546194663689A009B0F281846EB010140
:10246000FDF706FF564DA5FB00325109642303FB1F
:1024700011031B013233A5FB03235B0903F0F002B8
:1024800002EB011203F00F03216813448B6093E009
:1024900003684A4A934233D002F5806293422FD0B8
:1024A000FFF7D8F90026051846EB06012D1846EB74
:1024B0000101CB0043EA5573EA00154619466268EC
:1024C0003346921846EB0303281846EB0101FDF74B
:1024D000CFFE3B4DA5FB00325109642303FB1103E2
:1024E000DB003233A5FB03235B095A0002F4F872C8
:1024F00002EB011203F00703216813448B605BE0D9
:10250000FFF7B8F90026051846EB06012D1846EB33
:102510000101CB0043EA5573EA001546194662688B
:102520003346921846EB0303281846EB0101FDF7EA
:102530009FFE234DA5FB00325109642303FB1103C9
:10254000DB003233A5FB03235B095A0002F4F87267
:1025500002EB011203F00703216813448B602BE0A8
:10256000FFF788F90026051846EB06012D1846EB03
:102570000101CB0043EA5573EA001546194663682A
:102580009A009B0F281846EB0101FDF771FE0C4DD8
:10259000A5FB00325109642303FB11031B013233F5
:1025A000A5FB03235B0903F0F00202EB011203F029
:1025B0000F03216813448B6070BD00BF0010014001
:1025C0001F85EB5158B310B5044690F839300BB362
:1025D000242384F839302268D36823F40053D3606D
:1025E0002046FFF7FBFE2268136923F49043136132
:1025F0002268536923F02A0353612268D36843F4A5
:102600000053D3600020E063202384F8393084F83D
:102610003A3010BD80F83830FEF7ACFAD8E7012028
:1026200070470000054BD3F8882042F47002C3F8CD
:1026300088204FF000629A60704700BF00ED00E014
:1026400000B587B08DF8170064230293012301932E
:102650000DF117020092002278210348FEF736FDA3
:1026600007B05DF804FB00BF6C01002000B587B027
:102670008DF8170064230293012301930DF11702D3
:102680000092402278210348FEF720FD07B05DF854
:1026900004FB00BF6C01002008B56420FFF79CFA22
:1026A000AE20FFF7CDFF2020FFF7CAFF1020FFF775
:1026B000C7FFB020FFF7C4FFC820FFF7C1FF00200D
:1026C000FFF7BEFF1020FFF7BBFF4020FFF7B8FF6A
:1026D0008120FFF7B5FFFF20FFF7B2FFA120FFF732
:1026E000AFFFA620FFF7ACFFA820FFF7A9FF3F2010
:1026F000FFF7A6FFA420FFF7A3FFD320FFF7A0FF5B
:102700000020FFF79DFFD520FFF79AFFF020FFF78D
:1027100097FFD920FFF794FF2220FFF791FFDA20DF
:10272000FFF78EFF1220FFF78BFFDB20FFF788FFFC
:102730002020FFF785FF8D20FFF782FF1420FFF791
:102740007FFFAF20FFF77CFF08BD10B50446A1F165
:102750005000C0B2FFF774FF200940F01000FFF7EF
:102760006FFF04F00E0040F00100FFF769FF10BD9D
:1027700070B50546002601E00136F6B2072E14D8E2
:10278000A6F15000C0B2FFF75BFF0020FFF758FF33
:102790001020FFF755FF002414F0800FECD12846DD
:1027A000FFF764FF0134E4B2F6E770BD08B500201E
:1027B000FFF7DEFF08BD08B58D20FFF741FF1420AD
:1027C000FFF73EFFAF20FFF73BFF08BD2DE9F843C1
:1027D00006460F469046012B26D0022B5AD0BDE864
:1027E000F8830636F6B209F101095FFA89F918F89B
:1027F0000950002DF3D0203DEDB27E2E02D90137D5
:10280000FFB2002639463046FFF79FFF0024052C13
:10281000E7D805EB4503214A02EB4303185DFFF7B8
:1028200025FF0134E4B2F2E74FF00009DFE704EBE3
:1028300005131B4AD05CFFF719FF0134E4B2072CE3
:10284000F5D9791CC9B23046FFF77FFF002408E0B4
:1028500004EB05130833124AD05CFFF707FF01347D
:10286000E4B2072CF4D90836F6B209F101095FFA8F
:1028700089F918F80950002DB1D0203DEDB2782E1D
:1028800002D90137FFB2002639463046FFF75DFF17
:102890000024D4E74FF00009EBE700BF0432000842
:1028A0002C340008DFF834D0002103E00C4B5B58D7
:1028B000435004310B480C4B42189A42F6D30B4A52
:1028C00002E0002342F8043B094B9A42F9D3FFF798
:1028D000A9FE00F011F8FDF7CDFF704700000220BF
:1028E000603A000800000020700000207000002006
:1028F00054020020FEE7000070B50D4D0D4C641B26
:10290000A4100026A64209D10B4D0C4C00F05CFC33
:10291000641BA4100026A64205D170BD55F8043BE7
:1029200098470136EEE755F8043B98470136F2E741
:10293000583A0008583A0008583A00085C3A00082B
:1029400002440346934200D1704703F8011BF9E7A4
:102950000EB400B59CB01DAB029006906FF0004124
:10296000094807910491094953F8042B059100681F
:10297000019302A900F068F8029B00221A701CB0B3
:102980005DF804EB03B070470C0000200802FFFF65
:102990002DE9F0478E689E4282460C4690461F46BF
:1029A00038D88A8912F4906F32D025680969A5EB6E
:1029B0000109656905EB450505EBD57501334B4408
:1029C0006D109D4238BF1D46530531D5294600F094
:1029D00047FB064650B90C23CAF80030A38943F0E0
:1029E0004003A3814FF0FF30BDE8F08721694A46DC
:1029F00000F0BEFAA38923F4906343F08003A3811F
:102A0000266165614E44A5EB09052660A5603E463A
:102A1000BE4200D93E4632462068414600F0B6FA32
:102A2000A36822689B1B3244A36022600020DBE77E
:102A30002A4600F06FFB06460028E1D12169504686
:102A400000F0BEFAC7E700002DE9F04F98468B89E9
:102A50001B069DB007460D4614460ED50B6963B99B
:102A6000402100F0FDFA2860286120B90C233B606A
:102A70004FF0FF30D1E040236B6100230993202306
:102A80008DF82930CDF80C803023DFF8A8818DF83F
:102A90002A304FF0010923469A4613F8012B0AB158
:102AA000252AF9D1BAEB040B0BD05B462246294606
:102AB0003846FFF76DFF013000F0AA80099A5A44AA
:102AC00009929AF80030002B00F0A28000234FF00A
:102AD000FF32CDE905230AF1010A049307938DF82B
:102AE00053301A935446052214F8011B5148FDF740
:102AF0006FFB049AD8B9D00644BF20238DF8533019
:102B0000110744BF2B238DF853309AF800302A2B3D
:102B100015D0079A544600204FF00A0C214611F8B0
:102B2000013B303B092B4ED9B0B1079214E0A0EB2A
:102B3000080309FA03F313430493A246D2E7039B65
:102B4000191D1B680391002BBBBF5B4242F00202C0
:102B500007930793B8BF049223782E2B0CD1637888
:102B60002A2B35D1039B1A1D1B680392002BB8BF7B
:102B70004FF0FF3302340593DFF8C8A02178032219
:102B80005046FDF725FB40B14023A0EB0A0003FAB5
:102B900000F0049B03430134049314F8011B2648FE
:102BA0008DF828100622FDF713FB002838D0234BA0
:102BB0001BBB039B073323F0070308330393099BD5
:102BC0003344099367E70CFB02320C460120A5E76A
:102BD00000230134059319464FF00A0C204610F8E3
:102BE000012B303A092A03D9002BC5D00591C3E740
:102BF0000CFB012104460123F0E703AB00932A46B6
:102C00000F4B04A93846AFF30080421C0646D6D1CC
:102C1000AB895B063FF52CAF09981DB0BDE8F08F7E
:102C200003AB00932A46064B04A9384600F07AF815
:102C3000EBE700BF1C3A0008263A0008000000003D
:102C400091290008223A00082DE9F04716469946D6
:102C50008A680B69DDF820809342B8BF1346336061
:102C600091F8432007460C460AB1013333602368CC
:102C7000990642BF336802333360256815F00605B4
:102C800006D104F1190AE36832689B1AAB4226DCCC
:102C900094F84320131E226818BF012392062BD4F8
:102CA00004F1430249463846C04701301ED023682C
:102CB000E568326803F00603042B08BFAD1AA36869
:102CC00022690CBF25EAE57500259342C4BF9B1A13
:102CD000ED1800261A34B5421AD1002008E001236D
:102CE000524649463846C047013003D14FF0FF30C5
:102CF000BDE8F0870135C6E7E1185A1C302081F89D
:102D00004300224494F8451082F843100233C7E789
:102D10000123224649463846C0470130E6D00136F5
:102D2000D9E700002DE9FF470C469146277E0C9914
:102D3000782F80469A4604F1430207D8622F0AD8BA
:102D4000002F00F0D880582F00F0A38004F1420635
:102D500084F842703AE0A7F16303152BF6D801A07E
:102D600050F823F0BD2D0008D12D00084D2D00088E
:102D70004D2D00084D2D00084D2D0008D12D0008C7
:102D80004D2D00084D2D00084D2D00084D2D00083B
:102D9000DD2E0008012E0008BF2E00084D2D000872
:102DA0004D2D0008FF2E00084D2D0008012E0008B3
:102DB0004D2D00084D2D0008C72E00080B681A1D68
:102DC0001B680A6004F1420684F842300123A3E044
:102DD000256808682E0600F104030AD505680B6013
:102DE000002D03DA2D236D4284F843305E480A2318
:102DF00019E015F0400F05680B6018BF2DB2EFE722
:102E00000B682568181D0860280601D51D6802E0BA
:102E10006906FBD51D8854486F2F0CBF08230A2371
:102E2000002184F843106668A660002EA2BF2168C6
:102E300021F0040121600DB9002E4DD01646B5FBDE
:102E4000F3F103FB1157C75D06F8017D2F46BB4226
:102E50000D46F4D9082B0BD12368DF0708D5236969
:102E600061689942DEBF302306F8013C06F1FF3667
:102E7000921B2261CDF800A04B4603AA2146404692
:102E8000FFF7E2FE01304CD14FF0FF3004B0BDE857
:102E9000F087354884F8457023680E681F0656F899
:102EA000045B0E6014D5D90744BF43F020032360B0
:102EB0001DB9236823F0200323601023B0E72368A3
:102EC00043F0200323607823284884F84530E3E763
:102ED0005E0648BFADB2E6E71646BBE70B6826685C
:102EE00060691D1D0D6035061B6801D5186002E084
:102EF0007106FBD51880002323611646BAE70B68DC
:102F00001A1D0A601E68626800213046FDF760F9EC
:102F100008B1801B606063682361002384F843303C
:102F2000A8E72369324649464046D0470130ABD036
:102F300023689B0713D4E068039B9842B8BF1846E8
:102F4000A4E70123324649464046D04701309BD092
:102F50000135E36803995B1AAB42F2DCEBE700252D
:102F600004F11906F5E700BF2D3A00083E3A0008C3
:102F70000A44914200F1FF3300D1704710B511F8B7
:102F8000014B03F8014F9142F9D110BD884210B5B1
:102F900001EB020402D98442234607D8431EA14212
:102FA00008D011F8012B03F8012FF8E7024401467D
:102FB0008A4200D110BD13F8014D02F8014DF7E728
:102FC00037B5002948D051F8043C0190002BA1F1FD
:102FD0000404B8BFE41800F0D3F8204A019813683D
:102FE000154633B96360146003B0BDE8304000F0AB
:102FF000CDB8A3420BD921686218934204BF1A6866
:103000005B68636004BF521822602C60ECE71A46CC
:103010005B680BB1A342FAD911685518A5420BD1D0
:10302000246821445418A3421160DDD11C685B68F8
:10303000536021441160D7E702D90C230360D3E722
:10304000256861198B4204BF19685B68636004BF1F
:10305000491921605460C7E703B030BD8C000020DF
:10306000F8B5CD1C25F0030508350C2D38BF0C250F
:10307000002D064601DBA94203D90C233360002052
:10308000F8BD00F07DF821490A6814469CB9204F2C
:103090003B6823B92146304600F062F83860294683
:1030A000304600F05DF8431C23D10C2333603046DA
:1030B00000F06CF8E3E723685B1B17D40B2B03D9F4
:1030C00023601C44256004E06368A2420CBF0B60CF
:1030D0005360304600F05AF804F10B00231D20F035
:1030E0000700C21ACCD01B1AA350C9E72246646855
:1030F000CCE7C41C24F00304A042E3D0211A3046DC
:1031000000F02EF80130DDD1CFE700BF8C000020A9
:1031100090000020F8B5074614460E4621B9BDE8D8
:10312000F8401146FFF79CBF22B9FFF749FF25463B
:103130002846F8BD00F030F8A0420FD221463846AC
:10314000FFF78EFF05460028F2D031462246FFF7F2
:103150000FFF31463846FFF733FFE9E73546E7E72B
:1031600038B5064D0023044608462B6000F01EF8D3
:10317000431C02D12B6803B1236038BD44020020F8
:10318000014800F011B800BF4C020020014800F0D7
:103190000CB800BF4C02002051F8043C181F002B53
:1031A000BCBF0B58C018704770477047044A0549A8
:1031B0001368002B08BF0B46184410601846704770
:1031C0009400002058020020F8B500BFF8BC08BCED
:1031D0009E467047F8B500BFF8BC08BC9E467047D5
:1031E00073686F77206E756D3A25640000000000EB
:1031F00000000000010203040607080900000000A7
:10320000010203040000000000000000002F000085
:1032100000000700070000147F147F1400242A7F99
:103220002A12006264081323003649552250000018
:103230000503000000001C224100000041221C0088
:103240000014083E08140008083E0808000000A00A
:103250006000000808080808000060600000002006
:1032600010080402003E5149453E0000427F4000E4
:10327000004261514946002141454B31001814126A
:103280007F10002745454539003C4A494930000137
:103290007109050300364949493600064949291E86
:1032A00000003636000000005636000000081422E8
:1032B00041000014141414140000412214080002E8
:1032C0000151090600324959513E007C1211127C0D
:1032D000007F49494936003E41414122007F41413A
:1032E000221C007F49494941007F09090901003E2C
:1032F0004149497A007F0808087F0000417F41006A
:10330000002040413F01007F08142241007F4040DF
:103310004040007F020C027F007F0408107F003EC7
:103320004141413E007F09090906003E4151215EAD
:10333000007F091929460046494949310001017FAA
:103340000101003F4040403F001F2040201F003F40
:103350004038403F006314081463000708700807F2
:1033600000615149454300007F41410000552A5505
:103370002A55000041417F00000402010204004080
:1033800040404040000001020400002054545478A2
:10339000007F4844443800384444442000384444C2
:1033A000487F00385454541800087E090102001860
:1033B000A4A4A47C007F080404780000447D40009D
:1033C000004080847D00007F102844000000417F81
:1033D0004000007C04180478007C0804047800385D
:1033E0004444443800FC242424180018242418FCE5
:1033F000007C0804040800485454542000043F444E
:103400004020003C4040207C001C2040201C003C10
:103410004030403C004428102844001CA0A0A07C60
:10342000004464544C441414141414140000000098
:10343000000000000000000000000000000000F894
:1034400000000000000000333000000000100C06F7
:10345000100C0600000000000000000040C0784092
:10346000C0784000043F04043F040400007088FC5E
:1034700008300000001820FF211E0000F008F000B6
:10348000E018000000211C031E211E0000F0088827
:10349000700000001E2123241927211010160E0091
:1034A000000000000000000000000000000000E03C
:1034B0001804020000000007182040000002041851
:1034C000E00000000040201807000000404080F0AD
:1034D000804040000202010F01020200000000F0E3
:1034E000000000000101011F0101010000000000B7
:1034F0000000000080B0700000000000000000002C
:1035000000000000000101010101010100000000B4
:10351000000000000030300000000000000000004B
:1035200080601804006018060100000000E0100828
:103530000810E000000F102020100F00001010F8FD
:10354000000000000020203F20200000007008083C
:1035500008887000003028242221300000300888BC
:10356000884830000018202020110E000000C020E4
:1035700010F8000000070424243F240000F8088805
:10358000880808000019212020110E0000E0108892
:1035900088180000000F112020110E0000380808C4
:1035A000C83808000000003F0000000000708808D4
:1035B00008887000001C222121221C0000E0100855
:1035C0000810E0000000312222110F00000000C0AE
:1035D000C00000000000003030000000000000804B
:1035E000000000000000806000000000000080403B
:1035F0002010080000010204081020004040404054
:1036000040404000040404040404040000081020A6
:1036100040800000002010080402010000704808EB
:103620000808F0000000003036010000C030C82853
:10363000E810E0000718272423140B000000C0380E
:10364000E0000000203C23020227382008F8888888
:1036500088700000203F202020110E00C030080894
:1036600008083800071820202010080008F808086B
:103670000810E000203F202020100F0008F8888864
:10368000E8081000203F20202320180008F8888830
:10369000E8081000203F200003000000C0300808A8
:1036A0000838000007182020221E020008F8080031
:1036B0000008F808203F210101213F20000808F8F8
:1036C000080800000020203F20200000000008081B
:1036D000F8080800C08080807F00000008F888C0DB
:1036E00028180800203F20012638200008F808008C
:1036F00000000000203F20202020300008F8F800C3
:10370000F8F80800203F003F003F200008F830C0D4
:103710000008F808203F200007183F00E0100808C4
:103720000810E0000F10202020100F0008F80808F3
:103730000808F000203F210101010000E010080806
:103740000810E0000F18242438504F0008F888882B
:1037500088887000203F2000030C3020007088080B
:10376000080838000038202121221C00180808F819
:10377000080818000000203F2000000008F808009A
:103780000008F808001F202020201F00087888006B
:1037900000C83808000007380E010000F80800F8DB
:1037A0000008F800033C0700073C03000818688085
:1037B0008068180820302C03032C30200838C800FB
:1037C000C83808000000203F20000000100808084A
:1037D000C83808002038262120201800000000FEEC
:1037E000020202000000007F40404000000C30C098
:1037F00000000000000000010638C00000020202C4
:10380000FE000000004040407F0000000000040275
:1038100002020400000000000000000000000000A0
:103820000000000080808080808080800002020490
:103830000000000000000000000000000000808088
:10384000808000000019242222223F2008F80080F6
:1038500080000000003F112020110E0000000080B9
:1038600080800000000E1120202011000000008048
:103870008088F800000E112020103F20000080807A
:1038800080800000001F222222221300008080F08E
:10389000888888180020203F2020000000008080B9
:1038A00080808000006B94949493600008F80080FE
:1038B00080800000203F210000203F200080989859
:1038C000000000000020203F2020000000000080B9
:1038D0009898000000C08080807F000008F80000F9
:1038E00080808000203F24022D302000000808F84E
:1038F000000000000020203F202000008080808009
:1039000080808000203F20003F20003F808000809A
:1039100080800000203F210000203F2000008080A8
:1039200080800000001F202020201F008080008059
:103930008000000080FFA12020110E000000008008
:1039400080808000000E112020A0FF8080808000F9
:103950008080800020203F21200001000000808026
:10396000808080000033242424241900008080E01B
:10397000808000000000001F2020000080800000E8
:1039800000808000001F202020103F2080808000C9
:103990000080808000010E300806010080800080D9
:1039A000008080800F300C030C300F0000808000FE
:1039B000808080000020312E0E3120008080800029
:1039C0000080808080818E701806010000808080D9
:1039D000808080000021302C222130000000000077
:1039E000807C020200000000003F40400000000018
:1039F000FF00000000000000FF0000000002027C49
:103A0000800000000040403F00000000000601016F
:103A1000020204040000000000000000232D302BEF
:103A20002000686C4C0065666745464700303132BF
:103A30003334353637383941424344454600303116
:103A40003233343536373839616263646566000075
:083A500050C8FF7F01000000D7
:043A5800B5010008AC
:043A5C0091010008CC
:103A600001000000100000000024F40010000020FD
:103A70000000000000000000000000000000000046
:103A80000000000000000000000000000000000036
:103A90000000000000000000000000000000000026
:103AA0000000000000000000000000000000000016
:103AB0000000000000000000000000000000000006
:103AC00000000000000000000000000000000000F6
:04000005080028A522
:00000001FF
